{
  "_format": "hh3-artifact-1",
  "contractName": "KnowledgeCapsuleNFT",
  "sourceName": "contracts/KnowledgeCapsuleNFT.sol",
  "abi": [
    {
      "inputs": [],
      "stateMutability": "nonpayable",
      "type": "constructor"
    },
    {
      "inputs": [
        {
          "internalType": "address",
          "name": "sender",
          "type": "address"
        },
        {
          "internalType": "uint256",
          "name": "tokenId",
          "type": "uint256"
        },
        {
          "internalType": "address",
          "name": "owner",
          "type": "address"
        }
      ],
      "name": "ERC721IncorrectOwner",
      "type": "error"
    },
    {
      "inputs": [
        {
          "internalType": "address",
          "name": "operator",
          "type": "address"
        },
        {
          "internalType": "uint256",
          "name": "tokenId",
          "type": "uint256"
        }
      ],
      "name": "ERC721InsufficientApproval",
      "type": "error"
    },
    {
      "inputs": [
        {
          "internalType": "address",
          "name": "approver",
          "type": "address"
        }
      ],
      "name": "ERC721InvalidApprover",
      "type": "error"
    },
    {
      "inputs": [
        {
          "internalType": "address",
          "name": "operator",
          "type": "address"
        }
      ],
      "name": "ERC721InvalidOperator",
      "type": "error"
    },
    {
      "inputs": [
        {
          "internalType": "address",
          "name": "owner",
          "type": "address"
        }
      ],
      "name": "ERC721InvalidOwner",
      "type": "error"
    },
    {
      "inputs": [
        {
          "internalType": "address",
          "name": "receiver",
          "type": "address"
        }
      ],
      "name": "ERC721InvalidReceiver",
      "type": "error"
    },
    {
      "inputs": [
        {
          "internalType": "address",
          "name": "sender",
          "type": "address"
        }
      ],
      "name": "ERC721InvalidSender",
      "type": "error"
    },
    {
      "inputs": [
        {
          "internalType": "uint256",
          "name": "tokenId",
          "type": "uint256"
        }
      ],
      "name": "ERC721NonexistentToken",
      "type": "error"
    },
    {
      "inputs": [
        {
          "internalType": "address",
          "name": "owner",
          "type": "address"
        }
      ],
      "name": "OwnableInvalidOwner",
      "type": "error"
    },
    {
      "inputs": [
        {
          "internalType": "address",
          "name": "account",
          "type": "address"
        }
      ],
      "name": "OwnableUnauthorizedAccount",
      "type": "error"
    },
    {
      "anonymous": false,
      "inputs": [
        {
          "indexed": true,
          "internalType": "address",
          "name": "owner",
          "type": "address"
        },
        {
          "indexed": true,
          "internalType": "address",
          "name": "approved",
          "type": "address"
        },
        {
          "indexed": true,
          "internalType": "uint256",
          "name": "tokenId",
          "type": "uint256"
        }
      ],
      "name": "Approval",
      "type": "event"
    },
    {
      "anonymous": false,
      "inputs": [
        {
          "indexed": true,
          "internalType": "address",
          "name": "owner",
          "type": "address"
        },
        {
          "indexed": true,
          "internalType": "address",
          "name": "operator",
          "type": "address"
        },
        {
          "indexed": false,
          "internalType": "bool",
          "name": "approved",
          "type": "bool"
        }
      ],
      "name": "ApprovalForAll",
      "type": "event"
    },
    {
      "anonymous": false,
      "inputs": [
        {
          "indexed": true,
          "internalType": "uint256",
          "name": "tokenId",
          "type": "uint256"
        },
        {
          "indexed": true,
          "internalType": "address",
          "name": "creator",
          "type": "address"
        },
        {
          "indexed": false,
          "internalType": "string",
          "name": "ipfsHash",
          "type": "string"
        }
      ],
      "name": "CapsuleCreated",
      "type": "event"
    },
    {
      "anonymous": false,
      "inputs": [
        {
          "indexed": true,
          "internalType": "uint256",
          "name": "tokenId",
          "type": "uint256"
        },
        {
          "indexed": false,
          "internalType": "address[]",
          "name": "validators",
          "type": "address[]"
        }
      ],
      "name": "CapsuleVerified",
      "type": "event"
    },
    {
      "anonymous": false,
      "inputs": [
        {
          "indexed": true,
          "internalType": "address",
          "name": "previousOwner",
          "type": "address"
        },
        {
          "indexed": true,
          "internalType": "address",
          "name": "newOwner",
          "type": "address"
        }
      ],
      "name": "OwnershipTransferred",
      "type": "event"
    },
    {
      "anonymous": false,
      "inputs": [
        {
          "indexed": true,
          "internalType": "address",
          "name": "from",
          "type": "address"
        },
        {
          "indexed": true,
          "internalType": "address",
          "name": "to",
          "type": "address"
        },
        {
          "indexed": true,
          "internalType": "uint256",
          "name": "tokenId",
          "type": "uint256"
        }
      ],
      "name": "Transfer",
      "type": "event"
    },
    {
      "inputs": [
        {
          "internalType": "address",
          "name": "to",
          "type": "address"
        },
        {
          "internalType": "uint256",
          "name": "tokenId",
          "type": "uint256"
        }
      ],
      "name": "approve",
      "outputs": [],
      "stateMutability": "nonpayable",
      "type": "function"
    },
    {
      "inputs": [
        {
          "internalType": "address",
          "name": "owner",
          "type": "address"
        }
      ],
      "name": "balanceOf",
      "outputs": [
        {
          "internalType": "uint256",
          "name": "",
          "type": "uint256"
        }
      ],
      "stateMutability": "view",
      "type": "function"
    },
    {
      "inputs": [
        {
          "internalType": "uint256",
          "name": "",
          "type": "uint256"
        }
      ],
      "name": "capsules",
      "outputs": [
        {
          "internalType": "string",
          "name": "ipfsHash",
          "type": "string"
        },
        {
          "internalType": "address",
          "name": "creator",
          "type": "address"
        },
        {
          "internalType": "uint256",
          "name": "timestamp",
          "type": "uint256"
        },
        {
          "internalType": "bool",
          "name": "verified",
          "type": "bool"
        }
      ],
      "stateMutability": "view",
      "type": "function"
    },
    {
      "inputs": [
        {
          "internalType": "uint256",
          "name": "tokenId",
          "type": "uint256"
        }
      ],
      "name": "getApproved",
      "outputs": [
        {
          "internalType": "address",
          "name": "",
          "type": "address"
        }
      ],
      "stateMutability": "view",
      "type": "function"
    },
    {
      "inputs": [
        {
          "internalType": "uint256",
          "name": "tokenId",
          "type": "uint256"
        }
      ],
      "name": "getCapsuleData",
      "outputs": [
        {
          "components": [
            {
              "internalType": "string",
              "name": "ipfsHash",
              "type": "string"
            },
            {
              "internalType": "address",
              "name": "creator",
              "type": "address"
            },
            {
              "internalType": "uint256",
              "name": "timestamp",
              "type": "uint256"
            },
            {
              "internalType": "bool",
              "name": "verified",
              "type": "bool"
            },
            {
              "internalType": "address[]",
              "name": "validators",
              "type": "address[]"
            }
          ],
          "internalType": "struct KnowledgeCapsuleNFT.Capsule",
          "name": "",
          "type": "tuple"
        }
      ],
      "stateMutability": "view",
      "type": "function"
    },
    {
      "inputs": [
        {
          "internalType": "address",
          "name": "owner",
          "type": "address"
        },
        {
          "internalType": "address",
          "name": "operator",
          "type": "address"
        }
      ],
      "name": "isApprovedForAll",
      "outputs": [
        {
          "internalType": "bool",
          "name": "",
          "type": "bool"
        }
      ],
      "stateMutability": "view",
      "type": "function"
    },
    {
      "inputs": [
        {
          "internalType": "string",
          "name": "ipfsHash",
          "type": "string"
        }
      ],
      "name": "mintCapsule",
      "outputs": [
        {
          "internalType": "uint256",
          "name": "",
          "type": "uint256"
        }
      ],
      "stateMutability": "nonpayable",
      "type": "function"
    },
    {
      "inputs": [],
      "name": "name",
      "outputs": [
        {
          "internalType": "string",
          "name": "",
          "type": "string"
        }
      ],
      "stateMutability": "view",
      "type": "function"
    },
    {
      "inputs": [],
      "name": "owner",
      "outputs": [
        {
          "internalType": "address",
          "name": "",
          "type": "address"
        }
      ],
      "stateMutability": "view",
      "type": "function"
    },
    {
      "inputs": [
        {
          "internalType": "uint256",
          "name": "tokenId",
          "type": "uint256"
        }
      ],
      "name": "ownerOf",
      "outputs": [
        {
          "internalType": "address",
          "name": "",
          "type": "address"
        }
      ],
      "stateMutability": "view",
      "type": "function"
    },
    {
      "inputs": [],
      "name": "renounceOwnership",
      "outputs": [],
      "stateMutability": "nonpayable",
      "type": "function"
    },
    {
      "inputs": [
        {
          "internalType": "address",
          "name": "from",
          "type": "address"
        },
        {
          "internalType": "address",
          "name": "to",
          "type": "address"
        },
        {
          "internalType": "uint256",
          "name": "tokenId",
          "type": "uint256"
        }
      ],
      "name": "safeTransferFrom",
      "outputs": [],
      "stateMutability": "nonpayable",
      "type": "function"
    },
    {
      "inputs": [
        {
          "internalType": "address",
          "name": "from",
          "type": "address"
        },
        {
          "internalType": "address",
          "name": "to",
          "type": "address"
        },
        {
          "internalType": "uint256",
          "name": "tokenId",
          "type": "uint256"
        },
        {
          "internalType": "bytes",
          "name": "data",
          "type": "bytes"
        }
      ],
      "name": "safeTransferFrom",
      "outputs": [],
      "stateMutability": "nonpayable",
      "type": "function"
    },
    {
      "inputs": [
        {
          "internalType": "address",
          "name": "operator",
          "type": "address"
        },
        {
          "internalType": "bool",
          "name": "approved",
          "type": "bool"
        }
      ],
      "name": "setApprovalForAll",
      "outputs": [],
      "stateMutability": "nonpayable",
      "type": "function"
    },
    {
      "inputs": [
        {
          "internalType": "bytes4",
          "name": "interfaceId",
          "type": "bytes4"
        }
      ],
      "name": "supportsInterface",
      "outputs": [
        {
          "internalType": "bool",
          "name": "",
          "type": "bool"
        }
      ],
      "stateMutability": "view",
      "type": "function"
    },
    {
      "inputs": [],
      "name": "symbol",
      "outputs": [
        {
          "internalType": "string",
          "name": "",
          "type": "string"
        }
      ],
      "stateMutability": "view",
      "type": "function"
    },
    {
      "inputs": [
        {
          "internalType": "uint256",
          "name": "tokenId",
          "type": "uint256"
        }
      ],
      "name": "tokenURI",
      "outputs": [
        {
          "internalType": "string",
          "name": "",
          "type": "string"
        }
      ],
      "stateMutability": "view",
      "type": "function"
    },
    {
      "inputs": [],
      "name": "totalSupply",
      "outputs": [
        {
          "internalType": "uint256",
          "name": "",
          "type": "uint256"
        }
      ],
      "stateMutability": "view",
      "type": "function"
    },
    {
      "inputs": [
        {
          "internalType": "address",
          "name": "from",
          "type": "address"
        },
        {
          "internalType": "address",
          "name": "to",
          "type": "address"
        },
        {
          "internalType": "uint256",
          "name": "tokenId",
          "type": "uint256"
        }
      ],
      "name": "transferFrom",
      "outputs": [],
      "stateMutability": "nonpayable",
      "type": "function"
    },
    {
      "inputs": [
        {
          "internalType": "address",
          "name": "newOwner",
          "type": "address"
        }
      ],
      "name": "transferOwnership",
      "outputs": [],
      "stateMutability": "nonpayable",
      "type": "function"
    },
    {
      "inputs": [
        {
          "internalType": "uint256",
          "name": "tokenId",
          "type": "uint256"
        },
        {
          "internalType": "address[]",
          "name": "validatorAddresses",
          "type": "address[]"
        }
      ],
      "name": "verifyCapsule",
      "outputs": [],
      "stateMutability": "nonpayable",
      "type": "function"
    }
  ],
  "bytecode": "0x608060405234801562000010575f80fd5b50336040518060400160405280601581526020017f4e657269614b6e6f776c6564676543617073756c650000000000000000000000815250604051806040016040528060058152602001644e4552494160d81b815250815f9081620000769190620001b9565b506001620000858282620001b9565b5050506001600160a01b038116620000b657604051631e4fbdf760e01b81525f600482015260240160405180910390fd5b620000c181620000c8565b5062000281565b600680546001600160a01b038381166001600160a01b0319831681179093556040519116919082907f8be0079c531659141344cd1fd0a4f28419497f9722a3daafe3b4186f6b6457e0905f90a35050565b634e487b7160e01b5f52604160045260245ffd5b600181811c908216806200014257607f821691505b6020821081036200016157634e487b7160e01b5f52602260045260245ffd5b50919050565b601f821115620001b4575f81815260208120601f850160051c810160208610156200018f5750805b601f850160051c820191505b81811015620001b0578281556001016200019b565b5050505b505050565b81516001600160401b03811115620001d557620001d562000119565b620001ed81620001e684546200012d565b8462000167565b602080601f83116001811462000223575f84156200020b5750858301515b5f19600386901b1c1916600185901b178555620001b0565b5f85815260208120601f198616915b82811015620002535788860151825594840194600190910190840162000232565b50858210156200027157878501515f19600388901b60f8161c191681555b5050505050600190811b01905550565b611a3b806200028f5f395ff3fe608060405234801561000f575f80fd5b5060043610610132575f3560e01c806370a08231116100b4578063a46fe73411610079578063a46fe73414610288578063b88d4fde1461029b578063c87b56dd146102ae578063e985e9c5146102c1578063f1633ea9146102d4578063f2fde38b146102e7575f80fd5b806370a0823114610241578063715018a6146102545780638da5cb5b1461025c57806395d89b411461026d578063a22cb46514610275575f80fd5b806323b872dd116100fa57806323b872dd146101c557806336ca6130146101d857806342842e0e146101f8578063517bbf461461020b5780636352211e1461022e575f80fd5b806301ffc9a71461013657806306fdde031461015e578063081812fc14610173578063095ea7b31461019e57806318160ddd146101b3575b5f80fd5b61014961014436600461136a565b6102fa565b60405190151581526020015b60405180910390f35b61016661034b565b60405161015591906113d2565b6101866101813660046113e4565b6103da565b6040516001600160a01b039091168152602001610155565b6101b16101ac366004611416565b610401565b005b6007545b604051908152602001610155565b6101b16101d336600461143e565b610410565b6101eb6101e63660046113e4565b61049e565b6040516101559190611477565b6101b161020636600461143e565b610673565b61021e6102193660046113e4565b610692565b6040516101559493929190611511565b61018661023c3660046113e4565b61074e565b6101b761024f36600461154a565b610758565b6101b161079d565b6006546001600160a01b0316610186565b6101666107b0565b6101b1610283366004611563565b6107bf565b6101b7610296366004611636565b6107ca565b6101b16102a936600461167b565b610936565b6101666102bc3660046113e4565b61094e565b6101496102cf3660046116f2565b6109bf565b6101b16102e2366004611723565b6109ec565b6101b16102f536600461154a565b610b62565b5f6001600160e01b031982166380ac58cd60e01b148061032a57506001600160e01b03198216635b5e139f60e01b145b8061034557506301ffc9a760e01b6001600160e01b03198316145b92915050565b60605f8054610359906117d7565b80601f0160208091040260200160405190810160405280929190818152602001828054610385906117d7565b80156103d05780601f106103a7576101008083540402835291602001916103d0565b820191905f5260205f20905b8154815290600101906020018083116103b357829003601f168201915b5050505050905090565b5f6103e482610b9f565b505f828152600460205260409020546001600160a01b0316610345565b61040c828233610bd7565b5050565b6001600160a01b03821661043e57604051633250574960e11b81525f60048201526024015b60405180910390fd5b5f61044a838333610be4565b9050836001600160a01b0316816001600160a01b031614610498576040516364283d7b60e01b81526001600160a01b0380861660048301526024820184905282166044820152606401610435565b50505050565b6104d86040518060a00160405280606081526020015f6001600160a01b031681526020015f81526020015f15158152602001606081525090565b5f828152600260205260409020546001600160a01b03166105325760405162461bcd60e51b8152602060048201526014602482015273151bdad95b88191bd95cc81b9bdd08195e1a5cdd60621b6044820152606401610435565b5f8281526008602052604090819020815160a08101909252805482908290610559906117d7565b80601f0160208091040260200160405190810160405280929190818152602001828054610585906117d7565b80156105d05780601f106105a7576101008083540402835291602001916105d0565b820191905f5260205f20905b8154815290600101906020018083116105b357829003601f168201915b505050918352505060018201546001600160a01b03166020808301919091526002830154604080840191909152600384015460ff1615156060840152600484018054825181850281018501909352808352608090940193919290919083018282801561066357602002820191905f5260205f20905b81546001600160a01b03168152600190910190602001808311610645575b5050505050815250509050919050565b61068d83838360405180602001604052805f815250610936565b505050565b60086020525f90815260409020805481906106ac906117d7565b80601f01602080910402602001604051908101604052809291908181526020018280546106d8906117d7565b80156107235780601f106106fa57610100808354040283529160200191610723565b820191905f5260205f20905b81548152906001019060200180831161070657829003601f168201915b505050506001830154600284015460039094015492936001600160a01b039091169290915060ff1684565b5f61034582610b9f565b5f6001600160a01b038216610782576040516322718ad960e21b81525f6004820152602401610435565b506001600160a01b03165f9081526003602052604090205490565b6107a5610cd6565b6107ae5f610d03565b565b606060018054610359906117d7565b61040c338383610d54565b5f8082511161081b5760405162461bcd60e51b815260206004820152601960248201527f4950465320686173682063616e6e6f7420626520656d707479000000000000006044820152606401610435565b60078054905f61082a8361180f565b909155505060075461083c3382610df2565b6040805160a0810182528481523360208083019190915242828401525f60608301819052835181815280830185526080840152848152600890915291909120815181906108899082611878565b506020828101516001830180546001600160a01b0319166001600160a01b0390921691909117905560408301516002830155606083015160038301805460ff1916911515919091179055608083015180516108ea92600485019201906112de565b50905050336001600160a01b0316817f269295b1cd31303ca3a30f134c0e4ef6a8421ce81d26f79c5d7ad9ddbecda56f8560405161092891906113d2565b60405180910390a392915050565b610941848484610410565b6104983385858585610e0b565b606061095982610b9f565b505f61096f60408051602081019091525f815290565b90505f81511161098d5760405180602001604052805f8152506109b8565b8061099784610f33565b6040516020016109a8929190611934565b6040516020818303038152906040525b9392505050565b6001600160a01b039182165f90815260056020908152604080832093909416825291909152205460ff1690565b6109f4610cd6565b5f828152600260205260409020546001600160a01b0316610a4e5760405162461bcd60e51b8152602060048201526014602482015273151bdad95b88191bd95cc81b9bdd08195e1a5cdd60621b6044820152606401610435565b5f8281526008602052604090206003015460ff1615610aa25760405162461bcd60e51b815260206004820152601060248201526f105b1c9958591e481d995c9a599a595960821b6044820152606401610435565b5f815111610af25760405162461bcd60e51b815260206004820181905260248201527f4d7573742068617665206174206c65617374206f6e652076616c696461746f726044820152606401610435565b5f82815260086020908152604090912060038101805460ff191660011790558251610b25926004909201918401906112de565b50817f64905a28660f45d75fd641b3eed05c159df1ca8f28a7a6084c3cce164d5411ba82604051610b569190611962565b60405180910390a25050565b610b6a610cd6565b6001600160a01b038116610b9357604051631e4fbdf760e01b81525f6004820152602401610435565b610b9c81610d03565b50565b5f818152600260205260408120546001600160a01b03168061034557604051637e27328960e01b815260048101849052602401610435565b61068d8383836001610fc3565b5f828152600260205260408120546001600160a01b0390811690831615610c1057610c108184866110c7565b6001600160a01b03811615610c4a57610c2b5f855f80610fc3565b6001600160a01b0381165f90815260036020526040902080545f190190555b6001600160a01b03851615610c78576001600160a01b0385165f908152600360205260409020805460010190555b5f8481526002602052604080822080546001600160a01b0319166001600160a01b0389811691821790925591518793918516917fddf252ad1be2c89b69c2b068fc378daa952ba7f163c4a11628f55a4df523b3ef91a4949350505050565b6006546001600160a01b031633146107ae5760405163118cdaa760e01b8152336004820152602401610435565b600680546001600160a01b038381166001600160a01b0319831681179093556040519116919082907f8be0079c531659141344cd1fd0a4f28419497f9722a3daafe3b4186f6b6457e0905f90a35050565b6001600160a01b038216610d8657604051630b61174360e31b81526001600160a01b0383166004820152602401610435565b6001600160a01b038381165f81815260056020908152604080832094871680845294825291829020805460ff191686151590811790915591519182527f17307eab39ab6107e8899845ad3d59bd9653f200f220920489ca2b5937696c31910160405180910390a3505050565b61040c828260405180602001604052805f81525061112b565b6001600160a01b0383163b15610f2c57604051630a85bd0160e11b81526001600160a01b0384169063150b7a0290610e4d9088908890879087906004016119ae565b6020604051808303815f875af1925050508015610e87575060408051601f3d908101601f19168201909252610e84918101906119ea565b60015b610eee573d808015610eb4576040519150601f19603f3d011682016040523d82523d5f602084013e610eb9565b606091505b5080515f03610ee657604051633250574960e11b81526001600160a01b0385166004820152602401610435565b805160208201fd5b6001600160e01b03198116630a85bd0160e11b14610f2a57604051633250574960e11b81526001600160a01b0385166004820152602401610435565b505b5050505050565b60605f610f3f83611142565b60010190505f8167ffffffffffffffff811115610f5e57610f5e61159c565b6040519080825280601f01601f191660200182016040528015610f88576020820181803683370190505b5090508181016020015b5f19016f181899199a1a9b1b9c1cb0b131b232b360811b600a86061a8153600a8504945084610f9257509392505050565b8080610fd757506001600160a01b03821615155b15611098575f610fe684610b9f565b90506001600160a01b038316158015906110125750826001600160a01b0316816001600160a01b031614155b8015611025575061102381846109bf565b155b1561104e5760405163a9fbf51f60e01b81526001600160a01b0384166004820152602401610435565b81156110965783856001600160a01b0316826001600160a01b03167f8c5be1e5ebec7d5bd14f71427d1e84f3dd0314c0f7b2291e5b200ac8c7c3b92560405160405180910390a45b505b50505f90815260046020526040902080546001600160a01b0319166001600160a01b0392909216919091179055565b6110d2838383611219565b61068d576001600160a01b03831661110057604051637e27328960e01b815260048101829052602401610435565b60405163177e802f60e01b81526001600160a01b038316600482015260248101829052604401610435565b611135838361127d565b61068d335f858585610e0b565b5f8072184f03e93ff9f4daa797ed6e38ed64bf6a1f0160401b83106111805772184f03e93ff9f4daa797ed6e38ed64bf6a1f0160401b830492506040015b6d04ee2d6d415b85acef810000000083106111ac576d04ee2d6d415b85acef8100000000830492506020015b662386f26fc1000083106111ca57662386f26fc10000830492506010015b6305f5e10083106111e2576305f5e100830492506008015b61271083106111f657612710830492506004015b60648310611208576064830492506002015b600a83106103455760010192915050565b5f6001600160a01b038316158015906112755750826001600160a01b0316846001600160a01b03161480611252575061125284846109bf565b8061127557505f828152600460205260409020546001600160a01b038481169116145b949350505050565b6001600160a01b0382166112a657604051633250574960e11b81525f6004820152602401610435565b5f6112b283835f610be4565b90506001600160a01b0381161561068d576040516339e3563760e11b81525f6004820152602401610435565b828054828255905f5260205f20908101928215611331579160200282015b8281111561133157825182546001600160a01b0319166001600160a01b039091161782556020909201916001909101906112fc565b5061133d929150611341565b5090565b5b8082111561133d575f8155600101611342565b6001600160e01b031981168114610b9c575f80fd5b5f6020828403121561137a575f80fd5b81356109b881611355565b5f5b8381101561139f578181015183820152602001611387565b50505f910152565b5f81518084526113be816020860160208601611385565b601f01601f19169290920160200192915050565b602081525f6109b860208301846113a7565b5f602082840312156113f4575f80fd5b5035919050565b80356001600160a01b0381168114611411575f80fd5b919050565b5f8060408385031215611427575f80fd5b611430836113fb565b946020939093013593505050565b5f805f60608486031215611450575f80fd5b611459846113fb565b9250611467602085016113fb565b9150604084013590509250925092565b5f6020808352835160a08285015261149260c08501826113a7565b858301516001600160a01b039081166040878101919091528701516060808801919091528701511515608080880191909152870151868303601f190160a0880152805180845290850193505f928501905b80841015611505578451831682529385019360019390930192908501906114e3565b50979650505050505050565b608081525f61152360808301876113a7565b6001600160a01b039590951660208301525060408101929092521515606090910152919050565b5f6020828403121561155a575f80fd5b6109b8826113fb565b5f8060408385031215611574575f80fd5b61157d836113fb565b915060208301358015158114611591575f80fd5b809150509250929050565b634e487b7160e01b5f52604160045260245ffd5b604051601f8201601f1916810167ffffffffffffffff811182821017156115d9576115d961159c565b604052919050565b5f67ffffffffffffffff8311156115fa576115fa61159c565b61160d601f8401601f19166020016115b0565b9050828152838383011115611620575f80fd5b828260208301375f602084830101529392505050565b5f60208284031215611646575f80fd5b813567ffffffffffffffff81111561165c575f80fd5b8201601f8101841361166c575f80fd5b611275848235602084016115e1565b5f805f806080858703121561168e575f80fd5b611697856113fb565b93506116a5602086016113fb565b925060408501359150606085013567ffffffffffffffff8111156116c7575f80fd5b8501601f810187136116d7575f80fd5b6116e6878235602084016115e1565b91505092959194509250565b5f8060408385031215611703575f80fd5b61170c836113fb565b915061171a602084016113fb565b90509250929050565b5f8060408385031215611734575f80fd5b8235915060208084013567ffffffffffffffff80821115611753575f80fd5b818601915086601f830112611766575f80fd5b8135818111156117785761177861159c565b8060051b91506117898483016115b0565b81815291830184019184810190898411156117a2575f80fd5b938501935b838510156117c7576117b8856113fb565b825293850193908501906117a7565b8096505050505050509250929050565b600181811c908216806117eb57607f821691505b60208210810361180957634e487b7160e01b5f52602260045260245ffd5b50919050565b5f6001820161182c57634e487b7160e01b5f52601160045260245ffd5b5060010190565b601f82111561068d575f81815260208120601f850160051c810160208610156118595750805b601f850160051c820191505b81811015610f2a57828155600101611865565b815167ffffffffffffffff8111156118925761189261159c565b6118a6816118a084546117d7565b84611833565b602080601f8311600181146118d9575f84156118c25750858301515b5f19600386901b1c1916600185901b178555610f2a565b5f85815260208120601f198616915b82811015611907578886015182559484019460019091019084016118e8565b508582101561192457878501515f19600388901b60f8161c191681555b5050505050600190811b01905550565b5f8351611945818460208801611385565b835190830190611959818360208801611385565b01949350505050565b602080825282518282018190525f9190848201906040850190845b818110156119a25783516001600160a01b03168352928401929184019160010161197d565b50909695505050505050565b6001600160a01b03858116825284166020820152604081018390526080606082018190525f906119e0908301846113a7565b9695505050505050565b5f602082840312156119fa575f80fd5b81516109b88161135556fea2646970667358221220e23f783a5f5465b89bbf56a1af8a966d22072faf478a2892a486152e9cc134da64736f6c63430008140033",
  "linkReferences": {},
  "deployedLinkReferences": {},
  "immutableReferences": {},
  "inputSourceName": "project/contracts/KnowledgeCapsuleNFT.sol",
  "buildInfoId": "solc-0_8_20-dc741827c578d52455eb323ed917f36943df8695"
}